:020000040800F2
:1000000000500020592800085D26000865260008D9
:100010006D260008752600087D26000800000000F7
:100020000000000000000000000000001193000824
:100030008526000800000000F194000829590008F6
:10004000A1280008A1280008A1280008A12800086C
:10005000A1280008A1280008A1280008A12800085C
:10006000A1280008A1280008A1280008A12800084C
:10007000A1280008A1280008A1280008A12800083C
:10008000A1280008A1280008A1280008A12800082C
:10009000A1280008A1280008A1280008A12800081C
:1000A000A1280008A1280008A1280008A12800080C
:1000B00091260008A1280008A1280008A12800080E
:1000C000A1280008A1280008A1280008A1280008EC
:1000D000A1280008A1280008A1280008A5260008DA
:1000E000B9260008A1280008A12800080000000087
:1000F0000000000000000000000000000000000000
:0C01000000000000000000005FF808F1A3
:1001100010B5054C237833B9044B13B10448AFF341
:1001200000800123237010BD100200200000000099
:1001300088D1000808B5034B1BB103490348AFF34E
:10014000008008BD000000001402002088D10008D3
:1001500010F8012B11F8013B012A28BF9A42F7D071
:10016000D01A7047034613F8012B002AFBD1181A46
:100170000138704781F0004102E000BF83F0004386
:1001800030B54FEA41044FEA430594EA050F08BF32
:1001900090EA020F1FBF54EA000C55EA020C7FEAF6
:1001A000645C7FEA655C00F0E2804FEA5454D4EB73
:1001B0005555B8BF6D420CDD2C4480EA020281EA3D
:1001C000030382EA000083EA010180EA020281EA75
:1001D0000303362D88BF30BD11F0004F4FEA0131C7
:1001E0004FF4801C4CEA113102D0404261EB4101D6
:1001F00013F0004F4FEA03334CEA133302D052425C
:1002000063EB430394EA050F00F0A780A4F1010417
:10021000D5F1200E0DDB02FA0EFC22FA05F2801851
:1002200041F1000103FA0EF2801843FA05F3594137
:100230000EE0A5F120050EF1200E012A03FA0EFCB6
:1002400028BF4CF0020C43FA05F3C01851EBE371E0
:1002500001F0004507D54FF0000EDCF1000C7EEBFD
:1002600000006EEB0101B1F5801F1BD3B1F5001F3B
:100270000CD349085FEA30004FEA3C0C04F101045A
:100280004FEA445212F5800F80F09A80BCF1004F83
:1002900008BF5FEA500C50F1000041EB045141EA05
:1002A000050130BD5FEA4C0C404141EB0101013CCE
:1002B00028BFB1F5801FE9D291F0000F04BF0146BD
:1002C0000020B1FA81F308BF2033A3F10B03B3F18F
:1002D00020020CDA0C3208DD02F1140CC2F10C021F
:1002E00001FA0CF021FA02F10CE002F11402D8BF7D
:1002F000C2F1200C01FA02F120FA0CFCDCBF41EA49
:100300000C019040E41AA2BF01EB0451294330BD17
:100310006FEA04041F3C1CDA0C340EDC04F11404F4
:10032000C4F1200220FA04F001FA02F340EA0300CB
:1003300021FA04F345EA030130BDC4F10C04C4F111
:10034000200220FA02F001FA04F340EA03002946F1
:1003500030BD21FA04F0294630BD94F0000F83F43B
:10036000801306BF81F480110134013D4EE77FEA1E
:10037000645C18BF7FEA655C29D094EA050F08BF6A
:1003800090EA020F05D054EA000C04BF194610464B
:1003900030BD91EA030F1EBF0021002030BD5FEA8F
:1003A000545C05D14000494128BF41F0004130BDB7
:1003B00014F580043CBF01F5801130BD01F000450B
:1003C00045F0FE4141F470014FF0000030BD7FEA7E
:1003D000645C1ABF194610467FEA655C1CBF0B4679
:1003E000024650EA013406BF52EA033591EA030F90
:1003F00041F4002130BD00BF90F0000F04BF002188
:10040000704730B54FF4806404F132044FF00005BA
:100410004FF0000150E700BF90F0000F04BF002133
:10042000704730B54FF4806404F1320410F0004599
:1004300048BF40424FF000013EE700BF42004FEA94
:10044000E2014FEA31014FEA02701FBF12F07F4311
:1004500093F07F4F81F06051704732F07F4208BFC8
:10046000704793F07F4F04BF41F40021704730B5CF
:100470004FF4607401F0004521F000411CE700BF1B
:1004800050EA010208BF704730B54FF000050AE09E
:1004900050EA010208BF704730B511F0004502D59F
:1004A000404261EB41014FF4806404F132045FEAA1
:1004B000915C3FF4D8AE4FF003025FEADC0C18BF4A
:1004C00003325FEADC0C18BF033202EBDC02C2F13C
:1004D000200300FA03FC20FA02F001FA03FE40EACE
:1004E0000E0021FA02F11444BDE600BF70B54FF0D2
:1004F000FF0C4CF4E06C1CEA11541DBF1CEA1355B0
:1005000094EA0C0F95EA0C0F00F0DEF82C4481EA17
:10051000030621EA4C5123EA4C5350EA013518BF37
:1005200052EA033541F4801143F4801338D0A0FB24
:1005300002CE4FF00005E1FB02E506F00042E0FBD1
:1005400003E54FF00006E1FB03569CF0000F18BFD7
:100550004EF0010EA4F1FF04B6F5007F64F540747F
:1005600004D25FEA4E0E6D4146EB060642EAC62112
:1005700041EA55514FEAC52040EA5E504FEACE2E7F
:10058000B4F1FD0C88BFBCF5E06F1ED8BEF1004F82
:1005900008BF5FEA500E50F1000041EB045170BDFE
:1005A00006F0004646EA010140EA020081EA030142
:1005B000B4EB5C04C2BFD4EB0C0541EA045170BD3E
:1005C00041F480114FF0000E013C00F3AB8014F1B8
:1005D000360FDEBF002001F0004170BDC4F1000401
:1005E000203C35DA0C341BDC04F11404C4F1200582
:1005F00000FA05F320FA04F001FA05F240EA0200DD
:1006000001F0004221F0004110EBD37021FA04F612
:1006100042EB06015EEA430E08BF20EAD37070BDCC
:10062000C4F10C04C4F1200500FA04F320FA05F02B
:1006300001FA04F240EA020001F0004110EBD3702D
:1006400041F100015EEA430E08BF20EAD37070BD9D
:10065000C4F1200500FA05F24EEA020E20FA04F376
:1006600001FA05F243EA020321FA04F001F0004125
:1006700021FA04F220EA020000EBD3705EEA430E96
:1006800008BF20EAD37070BD94F0000F0FD101F0C5
:100690000046400041EB010111F4801F08BF013CFE
:1006A000F7D041EA060195F0000F18BF704703F03C
:1006B0000046520043EB030313F4801F08BF013DC3
:1006C000F7D043EA0603704794EA0C0F0CEA13557F
:1006D00018BF95EA0C0F0CD050EA410618BF52EA39
:1006E0004306D1D181EA030101F000414FF000003F
:1006F00070BD50EA410606BF1046194652EA43064D
:1007000019D094EA0C0F02D150EA013613D195EAC0
:100710000C0F05D152EA03361CBF104619460AD108
:1007200081EA030101F0004141F0FE4141F4700112
:100730004FF0000070BD41F0FE4141F4780170BD02
:1007400070B54FF0FF0C4CF4E06C1CEA11541DBF67
:100750001CEA135594EA0C0F95EA0C0F00F0A7F869
:10076000A4EB050481EA030E52EA03354FEA013196
:1007700000F088804FEA03334FF0805545EA1313A9
:1007800043EA12634FEA022245EA111545EA106571
:100790004FEA00260EF000419D4208BF964244F108
:1007A000FD0404F5407402D25B084FEA3202B61A27
:1007B00065EB03055B084FEA32024FF480104FF4FB
:1007C000002CB6EB020E75EB030E22BFB61A75466F
:1007D00040EA0C005B084FEA3202B6EB020E75EB02
:1007E000030E22BFB61A754640EA5C005B084FEA6A
:1007F0003202B6EB020E75EB030E22BFB61A754637
:1008000040EA9C005B084FEA3202B6EB020E75EB41
:10081000030E22BFB61A754640EADC0055EA060E02
:1008200018D04FEA051545EA16754FEA06164FEA45
:10083000C30343EA52734FEAC2025FEA1C1CC0D1F1
:1008400011F4801F0BD141EA00014FF000004FF07E
:10085000004CB6E711F4801F04BF01430020B4F13F
:10086000FD0C88BFBCF5E06F3FF6AFAEB5EB030CF7
:1008700004BFB6EB020C5FEA500C50F1000041EBF4
:10088000045170BD0EF0004E4EEA113114EB5C04C1
:10089000C2BFD4EB0C0541EA045170BD41F4801194
:1008A0004FF0000E013C90E645EA060E8DE60CEA9C
:1008B000135594EA0C0F08BF95EA0C0F3FF43BAFB9
:1008C00094EA0C0F0AD150EA01347FF434AF95EA70
:1008D0000C0F7FF425AF104619462CE795EA0C0F54
:1008E00006D152EA03353FF4FDAE1046194622E721
:1008F00050EA410618BF52EA43067FF4C5AE50EAFB
:1009000041047FF40DAF52EA43057FF4EBAE12E7EA
:100910004FF0FF3C06E000BF4FF0010C02E000BFCB
:100920004FF0010C4DF804CD4FEA410C7FEA6C5CAE
:100930004FEA430C18BF7FEA6C5C1BD001B050EA51
:10094000410C0CBF52EA430C91EA030F02BF90EA3C
:10095000020F0020704710F1000F91EA030F58BFFB
:10096000994208BF90422CBFD8176FEAE37040F05D
:10097000010070474FEA410C7FEA6C5C02D150EAFB
:10098000013C07D14FEA430C7FEA6C5CD6D152EAB6
:10099000033CD3D05DF8040B704700BF844610467B
:1009A00062468C461946634600E000BF01B5FFF77A
:1009B000B7FF002848BF10F1000F01BD4DF808ED4A
:1009C000FFF7F4FF0CBF012000205DF808FB00BF1B
:1009D0004DF808EDFFF7EAFF34BF012000205DF875
:1009E00008FB00BF4DF808EDFFF7E0FF94BF0120C2
:1009F00000205DF808FB00BF4DF808EDFFF7CEFFC3
:100A000094BF012000205DF808FB00BF4DF808ED01
:100A1000FFF7C4FF34BF012000205DF808FB00BFD2
:100A20004FEA410C7FEA6C5C02D150EA013C0AD1EA
:100A30004FEA430C7FEA6C5C02D152EA033C02D1DC
:100A40004FF0000070474FF0010070474FEA41023D
:100A500012F5001215D211D56FF47873B3EB625210
:100A600012D94FEAC12343F0004343EA505311F037
:100A7000004F23FA02F018BF404270474FF00000C9
:100A8000704750EA013005D111F0004008BF6FF007
:100A9000004070474FF00000704700BF80F00040FA
:100AA00002E000BF81F0004142001FBF5FEA410346
:100AB00092EA030F7FEA226C7FEA236C6AD04FEA46
:100AC0001262D2EB1363C1BFD2184140484041408B
:100AD000B8BF5B42192B88BF704710F0004F40F43D
:100AE000000020F07F4018BF404211F0004F41F459
:100AF000000121F07F4118BF494292EA030F3FD025
:100B0000A2F1010241FA03FC10EB0C00C3F1200337
:100B100001FA03F100F0004302D5494260EB4000C6
:100B2000B0F5000F13D3B0F1807F06D340084FEA31
:100B3000310102F10102FE2A51D2B1F1004F40EB26
:100B4000C25008BF20F0010040EA0300704749008E
:100B500040EB0000013A28BFB0F5000FEDD2B0FA2B
:100B600080FCACF1080CB2EB0C0200FA0CF0AABF4E
:100B700000EBC25052421843BCBFD04018437047EC
:100B800092F0000F81F4000106BF80F400000132F2
:100B9000013BB5E74FEA41037FEA226C18BF7FEAC9
:100BA000236C21D092EA030F04D092F0000F08BF0B
:100BB0000846704790EA010F1CBF0020704712F0F2
:100BC0007F4F04D1400028BF40F00040704712F131
:100BD00000723CBF00F50000704700F0004343F096
:100BE000FE4040F4000070477FEA226216BF0846CC
:100BF0007FEA23630146420206BF5FEA412390EA8F
:100C0000010F40F4800070474FF0000304E000BF84
:100C100010F0004348BF40425FEA000C08BF704735
:100C200043F0964301464FF000001CE050EA0102F9
:100C300008BF70474FF000030AE000BF50EA01020E
:100C400008BF704711F0004302D5404261EB4101FB
:100C50005FEA010C02BF84460146002043F0B64320
:100C600008BFA3F18053A3F50003BCFA8CF2083A45
:100C7000A3EBC25310DB01FA02FC634400FA02FC4E
:100C8000C2F12002BCF1004F20FA02F243EB020055
:100C900008BF20F00100704702F1200201FA02FCB7
:100CA000C2F1200250EA4C0021FA02F243EB0200AA
:100CB00008BF20EADC7070474FF0FF0C1CEAD052EE
:100CC0001EBF1CEAD15392EA0C0F93EA0C0F6FD0AF
:100CD0001A4480EA010C400218BF5FEA41211ED08D
:100CE0004FF0006343EA501043EA5111A0FB013179
:100CF0000CF00040B1F5000F3EBF490041EAD3714E
:100D00005B0040EA010062F17F02FD2A1DD8B3F1C9
:100D1000004F40EBC25008BF20F00100704790F038
:100D2000000F0CF0004C08BF49024CEA502040EA8A
:100D300051207F3AC2BFD2F1FF0340EAC250704750
:100D400040F400004FF00003013A5DDC12F1190F8E
:100D5000DCBF00F000407047C2F10002410021FA00
:100D600002F1C2F1200200FA02FC5FEA310040F118
:100D7000000053EA4C0308BF20EADC70704792F091
:100D8000000F00F0004C02BF400010F4000F013AC9
:100D9000F9D040EA0C0093F0000F01F0004C02BFC4
:100DA000490011F4000F013BF9D041EA0C018FE733
:100DB0000CEAD15392EA0C0F18BF93EA0C0F0AD039
:100DC00030F0004C18BF31F0004CD8D180EA01005F
:100DD00000F00040704790F0000F17BF90F0004FF8
:100DE000084691F0000F91F0004F14D092EA0C0FDA
:100DF00001D142020FD193EA0C0F03D14B0218BF6D
:100E0000084608D180EA010000F0004040F0FE40B2
:100E100040F40000704740F0FE4040F4400070474E
:100E20004FF0FF0C1CEAD0521EBF1CEAD15392EACD
:100E30000C0F93EA0C0F69D0A2EB030280EA010CBD
:100E400049024FEA402037D04FF0805343EA111156
:100E500043EA10130CF000408B4238BF5B0042F1B4
:100E60007D024FF4000C8B4224BF5B1A40EA0C0059
:100E7000B3EB510F24BFA3EB510340EA5C00B3EB8B
:100E8000910F24BFA3EB910340EA9C00B3EBD10F79
:100E900024BFA3EBD10340EADC001B0118BF5FEACB
:100EA0001C1CE0D1FD2A3FF650AF8B4240EBC250F4
:100EB00008BF20F0010070470CF0004C4CEA5020B5
:100EC0007F32C2BFD2F1FF0340EAC250704740F404
:100ED00000004FF00003013A37E792F0000F00F0F6
:100EE000004C02BF400010F4000F013AF9D040EA74
:100EF0000C0093F0000F01F0004C02BF490011F408
:100F0000000F013BF9D041EA0C0195E70CEAD153FF
:100F100092EA0C0F08D142027FF47DAF93EA0C0FE6
:100F20007FF470AF084676E793EA0C0F04D14B02CA
:100F30003FF44CAF08466EE730F0004C18BF31F07C
:100F4000004CCAD130F000427FF45CAF31F0004376
:100F50007FF43CAF5FE700BF80B586B002AF0346C9
:100F60000A46FB711346BB71FB79134A5B001344BD
:100F70005A78BB791343DBB2FB73FA790F491346F6
:100F80005B0013449B000B4404331868FA790B4947
:100F900013465B0013449B000B4408331B785B0033
:100FA00099B207F10F0264230093012302F02EFA95
:100FB00000BF1037BD4680BD2C02002030D3000892
:100FC00080B586B000AF03460A46FB711346BB717D
:100FD000BB7943F00403DAB2FB7911461846FFF7F8
:100FE000BBFF154B1B685B6A7B6102233B61124BA5
:100FF0001B685A6A7B69D31A3A699A42F7D8BB7957
:1010000023F00403DAB2FB7911461846FFF7A4FF78
:10101000094B1B685B6AFB603223BB60064B1B6895
:101020005A6AFB68D31ABA689A42F7D800BF00BF61
:101030001837BD4680BD00BFD002002080B582B009
:1010400000AF03460A46FB711346BB71BA79FB79C0
:1010500011461846FFF780FFBA79FB79114618460A
:10106000FFF7AEFF00BF0837BD4680BD80B584B036
:1010700000AF0346FB710B46BB7113467B71BB7916
:1010800023F00F03FB73BB791B01BB73FA7B7B79E6
:101090001343DAB2FB7911461846FFF7CFFFBA7B4C
:1010A0007B791343DAB2FB7911461846FFF7C6FF86
:1010B00000BF1037BD4680BD80B582B000AF03468B
:1010C0000A46FB711346BB71B979FB7900221846B9
:1010D000FFF7CCFF00BF0837BD4680BD80B582B0AA
:1010E00000AF03460A46FB711346BB71B979FB7921
:1010F00001221846FFF7BAFF00BF0837BD4680BD82
:1011000080B58AB000AF0346FB7100BF01F0F2FB6F
:101110000346312BFAD9FB7930211846FFF7CCFF73
:1011200000237B6211E0364B1B685B6AFB604FF467
:101130007A73BB60324B1B685A6AFB68D31ABA6871
:101140009A42F7D87B6A01337B627B6A042BEAD927
:10115000FB7930211846FFF7AFFF00233B6211E017
:10116000274B1B685B6A7B614FF47A733B61244BAE
:101170001B685A6A7B69D31A3A699A42F7D83B6A64
:1011800001333B623B6A042BEAD9FB7930211846D4
:10119000FFF792FF1A4B1B685B6AFB619623BB61EA
:1011A000174B1B685A6AFB69D31ABA699A42F7D877
:1011B000FB7902211846FFF77FFFFB7928211846AB
:1011C000FFF77AFFFB790C211846FFF775FFFB79D3
:1011D00006211846FFF770FFFB790A4A042102F83E
:1011E0001310FB79074A5B00134408225A70FB79FD
:1011F000184600F009F800BF2837BD4680BD00BF83
:10120000D00200202C02002080B586B000AF03463B
:10121000FB71FB7901211846FFF74EFF00237B612C
:1012200011E00D4B1B685B6A3B614FF47A73FB6006
:10123000094B1B685A6A3B69D31AFA689A42F7D875
:101240007B6901337B617B69012BEAD900BF00BF59
:101250001837BD4680BD00BFD002002090B587B0D2
:1012600000AF0346FB710B46BB7113467B711A4BF3
:1012700007F108040FCB84E80F00FA7917491346E9
:101280005B0013449B000B440A331B787A799A4223
:101290000AD9FA79114913465B0013449B000B44A9
:1012A0000A331B78013B7B717B799B0018333B44ED
:1012B00053F8103CDAB2BB791344DBB25BB263F093
:1012C0007F035BB2DAB2FB7911461846FFF7F4FEF2
:1012D00000BF1C37BD4690BDA0D1000830D3000828
:1012E00080B582B000AF03463960FB7108E03B680F
:1012F0005A1C3A601A78FB7911461846FFF7EEFE41
:101300003B681B78002BF2D100BF00BF0837BD46F9
:1013100080BD000080B483B000AF78600A4B1B68CA
:101320000A4AA2FB0323DB0D7A6802FB03F37B600E
:1013300000BF7B685A1E7A60002BFAD100BF00BF45
:101340000C37BD4680BC704738000020B5FA9BEED4
:1013500080B584B000AF3B4600221A605A609A60A4
:10136000DA6004210E4801F009FE04233B601123DA
:101370007B600023BB600323FB603B4619460848A3
:1013800001F078FC4FF47A7001F0BEFA01220421DA
:10139000034801F0C6FE00BF1037BD4680BD00BF48
:1013A0000008014080B586B000AF786000237B75EF
:1013B00000220421544801F0B4FE012204215248C5
:1013C00001F0AFFE4FF4FA60FFF7A4FF0022042102
:1013D0004D4801F0A6FE4FF49660FFF79BFF0122F7
:1013E0000421494801F09DFE2720FFF793FF0421C7
:1013F000454801F07FFE0346012B01D100237EE02A
:101400005020FFF787FF04213F4801F073FE034699
:10141000002B01D1002372E05020FFF77BFF002357
:101420007B7540E07B7D18333B44002203F80C2C95
:101430000023BB7531E000BF0421334801F05AFEA0
:101440000346002BF8D01E20FFF764FF04212E482E
:1014500001F050FE0346002B14D07B7D18333B4433
:1014600013F80C3C5AB2BB7DC3F10703012101FA0A
:1014700003F35BB213435AB27B7DD2B218333B44C1
:1014800003F80C2C00BF04211F4801F033FE034673
:10149000012BF8D0BB7D0133BB75BB7D072BCAD9AF
:1014A0007B7D01337B757B7D042BBBD90023FB75D2
:1014B00000233B750AE03B7D18333B4413F80C2CAA
:1014C000FB7D1344FB753B7D01333B753B7D032B5B
:1014D000F1D9BB7B1B021AB2FB7B1BB213431BB2BD
:1014E0007B827B8A1846FFF793FB03460749184621
:1014F000FFF796FC03461A467B681A6001231846DC
:101500001837BD4680BD00BF0008014000002041E3
:1015100080B586B000AF786000237B75002204217F
:10152000544801F0FEFD01220421524801F0F9FD6A
:101530004FF4FA60FFF7EEFE002204214D4801F05F
:10154000F0FD4FF49660FFF7E5FE012204214948C3
:1015500001F0E7FD2720FFF7DDFE0421454801F0FB
:10156000C9FD0346012B01D100237EE05020FFF787
:10157000D1FE04213F4801F0BDFD0346002B01D1FF
:10158000002372E05020FFF7C5FE00237B7540E08A
:101590007B7D18333B44002203F80C2C0023BB75E1
:1015A00031E000BF0421334801F0A4FD0346002BC5
:1015B000F8D01E20FFF7AEFE04212E4801F09AFD60
:1015C0000346002B14D07B7D18333B4413F80C3CAE
:1015D0005AB2BB7DC3F10703012101FA03F35BB2E9
:1015E00013435AB27B7DD2B218333B4403F80C2C20
:1015F00000BF04211F4801F07DFD0346012BF8D0F8
:10160000BB7D0133BB75BB7D072BCAD97B7D013305
:101610007B757B7D042BBBD90023FB7500233B75B9
:101620000AE03B7D18333B4413F80C2CFB7D13443C
:10163000FB753B7D01333B753B7D032BF1D93B7B38
:101640001B021AB27B7B1BB213431BB27B827B8AC9
:101650001846FFF7DDFA034607491846FFF7E0FB97
:1016600003461A467B681A60012318461837BD46A0
:1016700080BD00BF000801400000204180B483B05D
:1016800000AF7860034A7B68136000BF0C37BD462B
:1016900080BC70473002002080B582B000AF0346A6
:1016A000FB800D4B1B681B6800225A620A4B1B68AB
:1016B000184602F093FE00BF074B1B681B685A6A6E
:1016C000FB889A42F8D3044B1B68184602F0D0FE00
:1016D00000BF0837BD4680BD3002002080B582B013
:1016E00000AF78600B467B807B88012219467868C2
:1016F00001F017FD0A20FFF7CFFF7B880022194673
:10170000786801F00EFD00BF0837BD4680BD0000BF
:1017100080B500AF064B1B78002B07D14FF48071CA
:101720000448FFF7DBFF024B01221A7000BF80BDA7
:101730002E0200200008014080B500AF104B1B783E
:10174000032B19D10F4B1B681B685B6A1846FFF708
:101750005BFA03460C491846FFF7AEFA03461A46F1
:101760000A4B1A60094B1B68184600F057F8044BE7
:1017700000221A70012300E00023184680BD00BF3C
:101780002E0200203002002096438B3C00000020F7
:1017900080B582B000AF0346FB801D4B1B78012B48
:1017A00002D0022B1AD02EE04FF48051194801F0DC
:1017B000A1FC0346012B0DD1174B1B681B680022AF
:1017C0005A62134B02221A70134B1B68184602F020
:1017D00005FE18E00E4B00221A7014E04FF4805101
:1017E0000C4801F087FC0346002B08D10A4B1B680C
:1017F000184602F03DFE064B03221A7002E0044B2D
:1018000000221A7000BF00BF0837BD4680BD00BF70
:101810002E020020000C01403002002080B483B072
:1018200000AF786000BF0C37BD4680BC7047000039
:1018300080B582B000AF04F0D9F87860134B9A6895
:101840007B681344114A1360104B9A697B681344F8
:101850000E4A13610D4B9A6A7B6813440B4A13625C
:101860000A4BDA687B681344084A5360074BDA690D
:101870007B681344054A5361044BDA6A7B6813445E
:10188000024A536200BF0837BD4680BD04000020F5
:1018900080B584B000AF04F0A9F838600023FB6085
:1018A00030E0484AFB681B01134404331B683A6864
:1018B0009A4224D9434AFB681B01134404331A6833
:1018C0004049FB681B010B4408331B681A443D491F
:1018D000FB681B010B441A603A4AFB681B01134466
:1018E00004331A683749FB681B010B440C331B682F
:1018F0001A443449FB681B010B4404331A60FB682B
:101900000133FB60304B1B68FA689A42C9DB002345
:10191000BB6000237B6010E02A4A7B681B011344F4
:101920001A682849BB681B010B441B689A4201D204
:101930007B68BB607B6801337B60234B1B687A68E4
:101940009A42E9DB1F4ABB681B0113441A681D4910
:10195000BB681B010B4404331B689A422DD2194A01
:10196000BB681B0113441B681A46B968174808F086
:1019700071FD174B1A68BB68002B0CBF01230023B5
:10198000DBB21946104604F007F9124B1A68BB681F
:10199000012B01D1022300E000231946104604F078
:1019A000FBF80D4B1A68BB68022B01D1042300E041
:1019B00000231946104604F0EFF800BF1037BD466B
:1019C00080BD00BF04000020340000201CD20008AD
:1019D00060030020640300206803002080B582B00B
:1019E00000AF7860391D4FF0FF330122034803F048
:1019F00057F97B6818460837BD4680BD180300209C
:101A000080B500AF00F04EFF00F0C4F800F00EFA11
:101A100000F0E2F900F004F900F030F900F07EF98E
:101A20003D4802F0DBFC3D4808F07CFD3C4808F0F6
:101A300079FD3C4BDB683B4A43F08073D3603A4B03
:101A40001B68394A43F0010313603848FFF716FE5C
:101A5000FFF77EFC0020FFF753FB0020FFF7D4FBCD
:101A60002F49334808F066FD31490020FFF738FC64
:101A700001223049304803F09EF903F06FFF2F48F0
:101A800004F018FA03462E4A13602E4804F012FAA6
:101A900003462D4A13602D4B002201212C4804F0EF
:101AA0005FF903462B4A13602A4B1B681E21184618
:101AB00004F0D2F90346002B02D0274808F032FD8B
:101AC000264A0221102004F003FB0346244A136037
:101AD000244A0021244803F09EFF0346234A136052
:101AE000234A0021234803F096FF0346224A13604D
:101AF000224A0021224803F08EFF0346214A136048
:101B0000214A0021214803F086FF0346204A136042
:101B100003F046FF00BFFDE7D00200203CD20008E2
:101B200044D20008F0ED00E0001000E08802002040
:101B300080030020A803002018030020F4D300082D
:101B40007803002004D400087C030020E4D30008BC
:101B50001D2300087403002054D20008CCD30008D1
:101B6000700300203CD300086920000860030020B7
:101B700060D30008F12000086403002084D300082B
:101B80006121000868030020A8D30008D1210008C3
:101B90006C03002080B590B000AF07F11803282235
:101BA0000021184608F0EAFD3B1D00221A605A6029
:101BB0009A60DA601A610123BB614FF48033FB61E4
:101BC00000233B620123BB6202237B634FF480331B
:101BD000BB634FF4E013FB6307F11803184601F0F1
:101BE0006DFF0346002B01D000F0B9FB0F237B6093
:101BF0000223BB600023FB604FF480633B61002342
:101C00007B613B1D0221184602F0DAF90346002BE6
:101C100001D000F0A4FB00BF4037BD4680BD0000EE
:101C200080B500AF124B134A1A60114B124A5A602A
:101C30000F4B00229A600E4B0022DA600C4B4FF4DF
:101C400080421A610A4B00225A61094B00229A61B4
:101C5000074B0022DA61064B00221A62044801F0A9
:101C600091FA0346002B01D000F079FB00BF80BD44
:101C70003402002000540040A086010080B586B0E8
:101C800000AF07F1080300221A605A609A60DA6018
:101C90003B4600221A605A601E4B1F4A1A601D4BB9
:101CA0003F225A601B4B00229A601A4B47F22F5278
:101CB000DA60184B00221A61164B00225A61154B4C
:101CC00000229A61134802F039FB0346002B01D031
:101CD00000F045FB4FF48053BB6007F10803194641
:101CE0000C4802F02DFD0346002B01D000F037FB1D
:101CF00000233B6000237B603B461946054802F009
:101D00000FFF0346002B01D000F029FB00BF18375E
:101D1000BD4680BD88020020002C014080B588B0FF
:101D200000AF2A4BDB69294A43F00203D361274BFA
:101D3000DB6903F002037B607B6807F1100300227C
:101D40001A605A609A60DA6007F1080300221A608C
:101D50005A601F4B1F4A1A601D4B47225A601C4B8A
:101D600000229A601A4B4FF6FF72DA60184B00227D
:101D70001A61174B00229A61154802F0DFFA0346F8
:101D8000002B01D000F0EBFA4FF480533B6107F1D8
:101D9000100319460E4802F0D3FC0346002B01D075
:101DA00000F0DDFA0023BB600023FB6007F10803AD
:101DB0001946074802F0B4FE0346002B01D000F09C
:101DC000CEFA00BF2037BD4680BD00BF00100240E4
:101DD000D00200200004004080B500AF114B124A31
:101DE0001A60104B4FF4E1325A600E4B00229A6099
:101DF0000C4B0022DA600B4B00221A61094B0C22BB
:101E00005A61084B00229A61064B0022DA610548AC
:101E100002F0F6FE0346002B01D000F0A0FA00BF4E
:101E200080BD00BF180300200048004080B588B086
:101E300000AF07F1100300221A605A609A60DA605E
:101E4000284B9B69274A43F020039361254B9B69EC
:101E500003F02003FB60FB68224B9B69214A43F09F
:101E6000040393611F4B9B6903F00403BB60BB68D1
:101E70001C4B9B691B4A43F008039361194B9B69F8
:101E800003F008037B607B6800224FF482711648E0
:101E900001F047F94FF482733B6101237B6100231A
:101EA000BB610223FB6107F1100319460E4800F0E5
:101EB000E1FE4FF480533B610C4B7B610023BB611F
:101EC00007F1100319460A4800F0D4FE002205214C
:101ED000282000F0F2FD282000F00BFE00BF203784
:101EE000BD4680BD001002400008014000003110D6
:101EF000000C014080B584B002AF78607B681A683E
:101F0000454B1B689A4240F08280444B1B782E2B35
:101F10000BD0434B1B785A1CD1B2414A11701A4660
:101F20003E4B19783F4B99546CE03C4B1B782E2B61
:101F300068D13B4B00221A703A493B4808F0FAFA44
:101F40003848FEF70FF903461A460021354808F0D5
:101F500015FC36493448FEF7FBF80346002B13D135
:101F6000334B01221A70FFF763FC0020FFF74CF996
:101F7000304A0021304803F04EFD03462F4A1360DB
:101F80002F4808F0CFFA3DE02E492748FEF7E0F849
:101F90000346002B16D1264B00221A70274B1B68D4
:101FA000184603F0CBFD0020FFF72EF926491E4806
:101FB00008F0C0FA1C490020FFF792F9234808F006
:101FC000B1FA1FE0224B0093224B234A23491648C3
:101FD00008F0D0FA0346032B14D11F4B1B681D4A8F
:101FE00012681F491B010B4408331A601A4B1B6807
:101FF000174A12681A491B010B440C331A6019481E
:1020000008F090FA01220549034802F0D4FE00BF0F
:102010000837BD4680BD00BF18030020A80300207C
:10202000A9030020AC030020800300203CD200085C
:10203000CC030020A8D30008D12100086C030020A5
:1020400078D2000888D2000844D2000890D2000854
:10205000C8030020C4030020C0030020A0D2000851
:1020600004000020B0D2000880B584B000AF7860D2
:1020700001237B814FF0FF320021012003F0DAFDC4
:10208000174B1B684FF0FF31184603F099FF0346CA
:10209000002BEFD1134B1B78002B01D1FFF738FB3E
:1020A000FFF74AFBF860FB68002B03D0FFF730FB1B
:1020B000FFF742FB0C4B5A680B4B9B6813440A4AD0
:1020C00013600A4B186807F10A014FF0FF33002232
:1020D00004F072F8024B1B68184603F0BCFFC9E716
:1020E000780300202E02002004000020700300204E
:1020F00080B584B000AF78600223FB814FF0FF32DF
:102100000021022003F096FD114B1B684FF0FF31B8
:10211000184603F055FF0346002BEFD10D48FFF79B
:1021200041F90D4B5A690C4B9B6913440A4A1361E0
:102130000A4B186807F10E014FF0FF33002204F03C
:102140003BF8034B1B68184603F085FFD6E700BF3A
:1021500078030020A003002004000020700300206A
:1021600080B584B000AF78600323FB814FF0FF326D
:102170000021042003F05EFD114B1B684FF0FF317E
:10218000184603F01DFF0346002BEFD10D48FFF763
:10219000BFF90D4B5A6A0C4B9B6A13440A4A1362EF
:1021A0000A4B186807F10E014FF0FF33002204F0CC
:1021B00003F8034B1B68184603F04DFFD6E700BF3A
:1021C00078030020A40300200400002070030020F6
:1021D00080B584B000AF7860434B186807F10E01FA
:1021E0004FF0FF33002204F047F80346002BF3D1F1
:1021F000FB8919463D4808F02DF93D4B1B684FF00F
:10220000FF31184603F0DCFE0346002BE4D1FB89C6
:10221000032B44D0032B61DC012B02D0022B1FD0F7
:102220005CE0344B1B681846FEF708F902460B4683
:102230003149324808F07EF9002200210020FFF7E2
:102240000DF82E490020FFF74BF82A4B1B68184663
:10225000FEF7F4F802460B46294808F0FBF83DE08B
:10226000284B1B681846FEF7E9F802460B4626493C
:10227000224808F05FF9012200210020FEF7EEFF5E
:102280001E490020FFF72CF81E4B1B681846FEF76E
:10229000D5F802460B461D4808F0DCF81EE01C4B42
:1022A0001B681846FEF7CAF802460B461949134840
:1022B00008F040F9012207210020FEF7CFFF0F4967
:1022C0000020FFF70DF8124B1B681846FEF7B6F812
:1022D00002460B46104808F0BDF800BF044B1B68CF
:1022E000184603F0B8FE77E770030020C0D200085C
:1022F0007C03002000000020CCD2000880030020D6
:10230000D8D20008A0030020E4D20008ECD20008D4
:10231000A4030020F8D2000800D3000880B582B0E2
:1023200000AF7860054B1B78DBB2002B01D0FFF7C4
:10233000AFFA00BF0837BD4680BD00BFCC03002008
:1023400080B582B000AF78607B681B68B3F1804FC6
:1023500001D100F0BDFA00BF0837BD4680BD80B492
:1023600000AF00BFBD4680BC7047000080B584B0A0
:1023700000AF184B9B69174A43F001039361154B5B
:102380009B6903F00103BB60BB68124BDB69114A18
:1023900043F08053D3610F4BDB6903F080537B60C4
:1023A0007B6800220F216FF0010000F086FB0A4BD2
:1023B0005B68FB60FB6823F0E063FB60FB6843F055
:1023C0000073FB60044AFB68536000BF1037BD46D2
:1023D00080BD00BF001002400000014080B588B001
:1023E00000AF786007F1100300221A605A609A600B
:1023F000DA607B681B68154A934223D1144B9B69B2
:10240000134A43F008039361114B9B6903F00803DF
:10241000FB60FB68C0233B6112237B610323FB61EC
:1024200007F1100319460B4800F024FC084BDB6948
:10243000074A43F40013D361054BDB6903F400132F
:10244000BB60BB6800BF2037BD4680BD0054004064
:1024500000100240000C014080B485B000AF7860ED
:102460007B681B68124A93420CD1124B9B69114A3C
:1024700043F4006393610F4B9B6903F40063FB60BB
:10248000FB6810E07B681B680B4A93420BD1094B39
:10249000DB69084A43F00203D361064BDB6903F0B2
:1024A0000203BB60BB6800BF1437BD4680BC7047E9
:1024B000002C0140001002400004004080B588B0AC
:1024C00000AF786007F1100300221A605A609A602A
:1024D000DA607B681B68204A934239D11F4BDB6965
:1024E0001E4A43F48023D3611C4BDB6903F4802331
:1024F000FB60FB68194B9B69184A43F00803936122
:10250000164B9B6903F00803BB60BB684FF4806304
:102510003B6102237B610323FB6107F11003194632
:102520000F4800F0A7FB4FF400633B6100237B6181
:102530000023BB6107F110031946094800F09AFB1C
:1025400000220521272000F0B8FA272000F0D1FA58
:1025500000BF2037BD4680BD00480040001002404B
:10256000000C014080B58EB000AF78600023FB62A4
:102570000023BB62002387F83330344BDB69334AD6
:1025800043F00103D361314BDB6903F00103FB60CE
:10259000FB6807F1100207F114031146184601F019
:1025A0007FFE3B6AFB62FB6A002B03D101F050FE09
:1025B000786304E001F04CFE03465B007B637B6BB9
:1025C000234AA2FB03239B0C013BBB62214B4FF030
:1025D00080421A601F4B40F2E732DA601D4ABB6A44
:1025E00053601C4B00221A611A4B00229A60194B4F
:1025F00000229A61174801F0A1FE034687F83330A4
:1026000097F83330002B1BD1124801F057FF0346D7
:1026100087F8333097F83330002B11D11C2000F0AD
:1026200068FA7B680F2B08D8002279681C2000F01C
:1026300044FA094A7B68136002E0012387F83330CB
:1026400097F8333018463837BD4680BD0010024039
:1026500083DE1B43D00300203C00002080B400AF89
:1026600000BFFDE780B400AF00BFFDE780B400AF5E
:1026700000BFFDE780B400AF00BFFDE780B400AF4E
:1026800000BFFDE780B400AF00BFBD4680BC70470F
:1026900080B500AF024801F063FF00BF80BD00BFFE
:1026A000D003002080B500AF024802F0A9FB00BFB4
:1026B00080BD00BF1803002080B500AF4FF48050EC
:1026C00000F048FD00BF80BD80B400AF0123184674
:1026D000BD4680BC704780B582B000AF786039607D
:1026E00008F0F4F8034616221A604FF0FF3318463C
:1026F0000837BD4680BD80B582B000AF78604FF02E
:10270000FF317868FFF7E7FF00BFFDE780B586B0CF
:1027100000AFF860B9607A6000237B610AE0AFF334
:1027200000800146BB685A1CBA60CAB21A707B6945
:1027300001337B617A697B689A42F0DB7B681846DB
:102740001837BD4680BD80B586B000AFF860B9606F
:102750007A6000237B6109E0BB685A1CBA601B7871
:102760001846FFF73BF97B6901337B617A697B6827
:102770009A42F1DB7B6818461837BD4680BD80B4AD
:1027800083B000AF78604FF0FF3318460C37BD467A
:1027900080BC704780B483B000AF786039603B681C
:1027A0004FF400525A60002318460C37BD4680BCD7
:1027B000704780B483B000AF7860012318460C37AF
:1027C000BD4680BC704780B485B000AFF860B9608A
:1027D0007A60002318461437BD4680BC704700005D
:1027E00080B586B000AF7860144A154BD31A7B6170
:1027F0007B693B61134B1B68002B02D1114B124AC2
:102800001A60104B1A687B6813443A699A4207D2DF
:1028100008F05CF803460C221A604FF0FF3309E021
:10282000084B1B68FB60074B1A687B681344054A1A
:102830001360FB6818461837BD4680BD0050002065
:102840000004000018040020083D002080B400AF00
:1028500000BFBD4680BC7047FFF7F8FF0B480C492E
:102860000C4A002302E0D458C4500433C4188C42EC
:10287000F9D3094A094C002301E013600432A24253
:10288000FBD308F029F8FFF7BBF8704700000020E1
:1028900010020020DCD7000810020020043D0020B8
:1028A000FEE7000080B500AF084B1B68074A43F005
:1028B00010031360032000F0F5F80F20FFF752FE1D
:1028C000FFF754FD0023184680BD00BF00200240E2
:1028D00080B400AF054B1B781A46054B1B681344A8
:1028E000034A136000BFBD4680BC70474000002013
:1028F0001C04002080B400AF024B1B681846BD4684
:1029000080BC70471C04002080B584B000AF7860A4
:10291000FFF7F0FFB8607B68FB60FB68B3F1FF3F37
:1029200005D00A4B1B781A46FB681344FB6000BFB6
:10293000FFF7E0FF0246BB68D31AFA689A42F7D85D
:1029400000BF00BF1037BD4680BD00BF4000002063
:1029500080B485B000AF78607B6803F00703FB604C
:102960000C4BDB68BB60BA684FF6FF031340BB60DB
:10297000FB681A02BB68134343F0BF6343F40033A0
:10298000BB60044ABB68D36000BF1437BD4680BC3F
:10299000704700BF00ED00E080B400AF044BDB687F
:1029A0001B0A03F007031846BD4680BC704700BFF2
:1029B00000ED00E080B483B000AF0346FB7197F9EF
:1029C0000730002B0BDBFB7903F01F02064997F958
:1029D00007305B09012000FA02F241F8232000BF12
:1029E0000C37BD4680BC704700E100E080B483B086
:1029F00000AF03463960FB7197F90730002B0ADB03
:102A00003B68DAB20C4997F907301201D2B20B4495
:102A100083F800230AE03B68DAB20849FB7903F047
:102A20000F03043B1201D2B20B441A7600BF0C37DD
:102A3000BD4680BC704700BF00E100E000ED00E053
:102A400080B489B000AFF860B9607A60FB6803F0C9
:102A50000703FB61FB69C3F10703042B28BF0423B1
:102A6000BB61FB690433062B02D9FB69033B00E021
:102A700000237B614FF0FF32BB6902FA03F3DA43B4
:102A8000BB681A407B699A404FF0FF317B6901FABD
:102A900003F3D9437B680B40134318462437BD46E4
:102AA00080BC704780B582B000AF78607868FFF76F
:102AB0004FFF00BF0837BD4680BD80B586B000AF70
:102AC0000346B9607A60FB7300237B61FFF764FF04
:102AD00078617A68B9687869FFF7B2FF024697F9BA
:102AE0000F3011461846FFF781FF00BF1837BD466B
:102AF00080BD80B582B000AF0346FB7197F9073007
:102B00001846FFF757FF00BF0837BD4680BD80B4A9
:102B100085B000AF78600023FB737B6893F82130A9
:102B2000DBB2022B08D07B6804229A637B68002208
:102B300083F82020012320E07B681B681A687B68EB
:102B40001B6822F00E021A607B681B681A687B689B
:102B50001B6822F001021A607B681A6C7B68DB6BD1
:102B6000012101FA02F25A607B68012283F82120D8
:102B70007B68002283F82020FB7B18461437BD4673
:102B800080BC704780B584B000AF78600023FB73D1
:102B90007B6893F82130DBB2022B05D07B680422DE
:102BA0009A630123FB7351E07B681B681A687B689A
:102BB0001B6822F00E021A607B681B681A687B682B
:102BC0001B6822F001021A607B681B68224A93424C
:102BD00029D07B681B68214A934222D07B681B68FE
:102BE0001F4A93421AD07B681B681E4A934212D038
:102BF0007B681B681C4A93420AD07B681B681B4A8F
:102C0000934202D14FF480130EE04FF080730BE03B
:102C10004FF4803308E04FF4805305E04FF48073A5
:102C200002E0102300E00123114A53607B68012277
:102C300083F821207B68002283F820207B685B6B6F
:102C4000002B03D07B685B6B78689847FB7B18464A
:102C50001037BD4680BD00BF080002401C00024086
:102C60003000024044000240580002406C00024024
:102C70000000024080B48BB000AF78603960002360
:102C80007B6200233B6269E101227B6A02FA03F363
:102C9000FB613B681B68FA691340BB61BA69FB6959
:102CA0009A4240F058813B685B689A4A93425ED0F2
:102CB000984A934275D8984A934258D0964A93427C
:102CC0006FD8964A934252D0944A934269D8944A14
:102CD00093424CD0924A934263D8924A934246D050
:102CE000904A93425DD8122B2AD8122B59D801A2B0
:102CF00052F823F06F2D0008492D00085B2D0008C5
:102D00009D2D0008A32D0008A32D0008A32D000869
:102D1000A32D0008A32D0008A32D0008A32D000853
:102D2000A32D0008A32D0008A32D0008A32D000843
:102D3000A32D0008A32D0008512D0008652D0008C3
:102D4000794A934213D02CE03B68DB683B6229E070
:102D50003B68DB6804333B6224E03B68DB68083394
:102D60003B621FE03B68DB680C333B621AE03B6868
:102D70009B68002B02D104233B6213E03B689B68F5
:102D8000012B05D108233B627B68FA691A6109E0CF
:102D900008233B627B68FA695A6103E000233B62C7
:102DA00000E000BFBB69FF2B01D87B6801E07B68B6
:102DB00004337B61BB69FF2B02D87B6A9B0002E076
:102DC0007B6A083B9B003B617B691A680F213B696A
:102DD00001FA03F3DB431A40396A3B6901FA03F352
:102DE0001A437B691A603B685B6803F08053002BD1
:102DF00000F0B1804D4B9B694C4A43F00103936155
:102E00004A4B9B6903F00103BB60BB68484A7B6A7D
:102E10009B08023352F82330FB607B6A03F0030304
:102E20009B000F2202FA03F3DB43FA681340FB60B6
:102E30007B68404A934213D07B683F4A93420DD04F
:102E40007B683E4A934207D07B683D4A934201D15A
:102E5000032306E0042304E0022302E0012300E050
:102E600000237A6A02F0030292009340FA68134347
:102E7000FB602F497B6A9B080233FA6841F82320E4
:102E80003B685B6803F48013002B06D02D4B9A68D7
:102E90002C49BB6913438B6006E02A4B9A68BB69D7
:102EA000DB43284913408B603B685B6803F40013E5
:102EB000002B06D0234BDA682249BB691343CB6051
:102EC00006E0204BDA68BB69DB431E491340CB6048
:102ED0003B685B6803F40033002B06D0194B5A683B
:102EE0001849BB6913434B6006E0164B5A68BB692F
:102EF000DB43144913404B603B685B6803F4803349
:102F0000002B21D00F4B1A680E49BB6913430B608D
:102F100021E000BF0000321000003110000022103C
:102F200000002110000012100000111000100240DB
:102F30000000014000080140000C01400010014069
:102F400000140140000401400B4B1A68BB69DB43CD
:102F5000094913400B607B6A01337B623B681A6846
:102F60007B6A22FA03F3002B7FF48EAE00BF00BF12
:102F70002C37BD4680BC70470004014080B489B046
:102F800000AF786039600023FB619AE00122FB69A1
:102F900002FA03F33A681340BB61BB69002B00F0EF
:102FA0008D804E4AFB699B08023352F823307B61C7
:102FB000FB6903F003039B000F2202FA03F37A6913
:102FC00013407B617B68464A934213D07B68454A35
:102FD00093420DD07B68444A934207D07B68434AB2
:102FE000934201D1032306E0042304E0022302E01C
:102FF000012300E00023FA6902F0030292009340EB
:103000007A699A4232D13A4B1A68BB69DB43384934
:1030100013400B60364B5A68BB69DB43344913409D
:103020004B60334BDA68BB69DB4331491340CB60FB
:103030002F4B9A68BB69DB432D4913408B60FB69BA
:1030400003F003039B000F2202FA03F37B61234A80
:10305000FB699B08023352F823107B69DA431F484F
:10306000FB699B080A40023340F82320BB69FF2B11
:1030700001D87B6801E07B6804333B61BB69FF2BAF
:1030800002D8FB699B0002E0FB69083B9B00FB60E8
:103090003B691A680F21FB6801FA03F3DB431A400E
:1030A0000421FB6801FA03F31A433B691A607B6849
:1030B000DA68BB69DB431A407B68DA60FB6901337D
:1030C000FB613A68FB6922FA03F3002B7FF45EAFE1
:1030D00000BF00BF2437BD4680BC704700000140E0
:1030E00000080140000C01400010014000140140A4
:1030F0000004014080B485B000AF78600B467B804F
:103100007B689A687B881340002B02D00123FB73F5
:1031100001E00023FB73FB7B18461437BD4680BCDF
:10312000704780B483B000AF78600B467B80134655
:103130007B707B78002B03D07A887B681A6103E070
:103140007B881A047B681A6100BF0C37BD4680BCBF
:103150007047000080B582B000AF0346FB80084B8B
:103160005A69FB881340002B06D0054AFB8853613F
:10317000FB881846FEF70CFB00BF0837BD4680BD34
:103180000004014080B584B000AF78607B68002BFC
:1031900001D101232BE17B6893F83D30DBB2002B9A
:1031A00006D17B68002283F83C207868FFF716F987
:1031B0007B68242283F83D207B681B681A687B6843
:1031C0001B6822F001021A607B681B681A687B6822
:1031D0001B6842F400421A607B681B681A687B68AF
:1031E0001B6822F400421A6001F032F8F8607B6834
:1031F0005B68814A934207D8FB68804A934294BF38
:1032000001230023DBB206E0FB687D4A934294BFB2
:1032100001230023DBB2002B01D00123E7E0FB6890
:10322000784AA2FB03239B0CBB607B681B685B682E
:1032300023F03F017B681B68BA680A435A607B68C9
:103240001B681B6A23F03F017B685B686A4A9342F4
:1032500002D8BB68013309E0BB684FF4967202FBE9
:1032600003F3694AA2FB03239B0901337A681268BE
:103270000B4313627B681B68DB6923F44F4222F027
:10328000FF027B685B685C498B4219D8FB68591E5A
:103290007B685B685B00B1FBF3F3591C40F6FC7381
:1032A0000B40002B0AD0FB68591E7B685B685B00F3
:1032B000B1FBF3F30133C3F30B0351E004234FE0FD
:1032C0007B689B68002B11D1FB68581E7B6859688E
:1032D0000B465B000B44B0FBF3F30133C3F30B036A
:1032E000002B0CBF01230023DBB212E0FB68581E49
:1032F0007B6859680B469B000B4499000B44B0FB5C
:10330000F3F30133C3F30B03002B0CBF01230023A2
:10331000DBB2002B01D0012322E07B689B68002BED
:103320000ED1FB68581E7B6859680B465B000B4446
:10333000B0FBF3F30133C3F30B0343F400430FE09B
:10334000FB68581E7B6859680B469B000B4499002C
:103350000B44B0FBF3F30133C3F30B0343F44043DB
:10336000796809681343CB617B681B681B6823F08D
:10337000C0017B68DA697B681B6A1A437B681B683B
:103380000A431A607B681B689B6823F4034323F09D
:10339000FF037A6811697A68D26811437A68126803
:1033A0000B4393607B681B68DB6823F0FF017B683D
:1033B0005A697B689B691A437B681B680A43DA6019
:1033C0007B681B681A687B681B6842F001021A6000
:1033D0007B6800221A647B68202283F83D207B688A
:1033E00000221A637B68002283F83E2000231846DF
:1033F0001037BD4680BD00BFA08601007F841E003F
:10340000FF083D0083DE1B43D34D621080B588B0BA
:1034100002AFF8607A601A460B467B8113463B8107
:10342000FFF768FA7861FB6893F83D30DBB2202B38
:1034300040F0E0807B690093192301227049F8680D
:1034400000F064F90346002B01D00223D3E0FB68AF
:1034500093F83C30012B01D10223CCE0FB68012220
:1034600083F83C20FB681B681B6803F00103012BF9
:1034700007D0FB681B681A68FB681B6842F00102F2
:103480001A60FB681B681A68FB681B6822F40062FC
:103490001A60FB68212283F83D20FB68102283F824
:1034A0003E20FB6800221A64FB687A685A62FB6857
:1034B0003A895A85FB685B8D9AB2FB681A85FB686E
:1034C000504ADA6279897B693A6AF86800F09CF8B8
:1034D0000346002B01D001238DE000233B61FB68F4
:1034E0001B685B693B61FB681B689B693B613B69CF
:1034F00066E07A69396AF86800F022FA0346002B20
:103500000DD0FB681B6C042B07D1FB681B681A6885
:10351000FB681B6842F400721A6001236BE0FB68D1
:103520005B6A1A78FB681B681A61FB685B6A5A1C45
:10353000FB685A62FB685B8D9BB2013B9AB2FB68E9
:103540005A85FB681B8D013B9AB2FB681A85FB68A4
:103550001B685B6903F00403042B1BD1FB681B8D04
:10356000002B17D0FB685B6A1A78FB681B681A612E
:10357000FB685B6A5A1CFB685A62FB685B8D9BB2F6
:10358000013B9AB2FB685A85FB681B8D013B9AB2DE
:10359000FB681A857A69396AF86800F019FA0346F7
:1035A000002B0DD0FB681B6C042B07D1FB681B683C
:1035B0001A68FB681B6842F400721A6001231AE063
:1035C000FB681B8D002B94D1FB681B681A68FB6895
:1035D0001B6842F400721A60FB68202283F83D20C9
:1035E000FB68002283F83E20FB68002283F83C2021
:1035F000002300E0022318461837BD4680BD00BFF7
:10360000020010000000FFFF80B588B002AFF86034
:103610007A603B600B467B81FB68DB6A7B617B6980
:10362000082B06D07B69012B03D07B6913F5803F03
:1036300008D1FB681B681A68FB681B6842F480723B
:103640001A600BE0FB681B6B122B07D1FB681B6831
:103650001A68FB681B6842F480721A603B6800932A
:103660007B6800224FF00111F86800F04FF8034624
:10367000002B0DD0FB681B681B6803F48073B3F547
:10368000807F03D1FB684FF400721A64032335E096
:10369000FB681B69B3F5804F08D17B89DBB21A4602
:1036A000FB681B6802F0FE021A611BE07B89DB11DC
:1036B000DBB203F00603DBB263F00F03DAB2FB68A0
:1036C0001B681A613B687A680E49F86800F098F840
:1036D0000346002B01D0012310E07B89DAB2FB689E
:1036E0001B681A613B687A680749F86800F088F837
:1036F0000346002B01D0012300E0002318461837B1
:10370000BD4680BD080001000200010080B584B004
:1037100000AFF860B9603B601346FB7148E03B685E
:10372000B3F1FF3F44D0FFF7E5F80246BB69D31A77
:103730003A689A4202D33B68002B39D1BB681B0C14
:10374000DBB2012B0DD1FB681B685B69DA43BB68F8
:1037500013409BB2002B0CBF01230023DBB21A469F
:103760000CE0FB681B689B69DA43BB6813409BB2A3
:10377000002B0CBF01230023DBB21A46FB799A42CF
:1037800016D1FB6800221A63FB68202283F83D20D3
:10379000FB68002283F83E20FB681B6C43F020028C
:1037A000FB681A64FB68002283F83C20012323E0B5
:1037B000BB681B0CDBB2012B0DD1FB681B685B697E
:1037C000DA43BB6813409BB2002B0CBF01230023DC
:1037D000DBB21A460CE0FB681B689B69DA43BB68E6
:1037E00013409BB2002B0CBF01230023DBB21A460F
:1037F000FB799A4293D0002318461037BD4680BD0E
:1038000080B584B000AFF860B9607A603B6071E069
:10381000FB681B685B6903F48063B3F5806F23D199
:10382000FB681B681A68FB681B6842F400721A6028
:10383000FB681B686FF480625A61FB6800221A63A0
:10384000FB68202283F83D20FB68002283F83E209D
:10385000FB681B6C43F00402FB681A64FB680022DF
:1038600083F83C20012367E07B68B3F1FF3F41D040
:10387000FFF740F802463B68D31A7A689A4202D3AF
:103880007B68002B36D1BB681B0CDBB2012B0CD143
:10389000FB681B685B69DA43BB6813409BB2002B73
:1038A00014BF01230023DBB20BE0FB681B689B699C
:1038B000DA43BB6813409BB2002B14BF01230023E3
:1038C000DBB2002B16D0FB6800221A63FB682022B3
:1038D00083F83D20FB68002283F83E20FB681B6CC8
:1038E00043F02002FB681A64FB68002283F83C2046
:1038F000012321E0BB681B0CDBB2012B0CD1FB6860
:103900001B685B69DA43BB6813409BB2002B14BF92
:1039100001230023DBB20BE0FB681B689B69DA43E1
:10392000BB6813409BB2002B14BF01230023DBB202
:10393000002B7FF46DAF002318461037BD4680BDC5
:1039400080B584B000AFF860B9607A6034E0F868A0
:1039500000F086F80346002B01D0012334E0BB6859
:10396000B3F1FF3F28D0FEF7C5FF02467B68D31AAC
:10397000BA689A4202D3BB68002B1DD1FB681B6852
:103980005B6903F08003802B16D0FB6800221A636A
:10399000FB68202283F83D20FB68002283F83E204C
:1039A000FB681B6C43F02002FB681A64FB68002272
:1039B00083F83C20012307E0FB681B685B6903F088
:1039C0008003802BC3D1002318461037BD4680BD2D
:1039D00080B584B000AFF860B9607A6034E0F86810
:1039E00000F03EF80346002B01D0012334E0BB6811
:1039F000B3F1FF3F28D0FEF77DFF02467B68D31A64
:103A0000BA689A4202D3BB68002B1DD1FB681B68C1
:103A10005B6903F00403042B16D0FB6800221A63D1
:103A2000FB68202283F83D20FB68002283F83E20BB
:103A3000FB681B6C43F02002FB681A64FB680022E1
:103A400083F83C20012307E0FB681B685B6903F0F7
:103A50000403042BC3D1002318461037BD4680BD94
:103A600080B483B000AF78607B681B685B6903F447
:103A70008063B3F5806F1BD17B681B686FF4806235
:103A80005A617B6800221A637B68202283F83D20FC
:103A90007B68002283F83E207B681B6C43F00402A5
:103AA0007B681A647B68002283F83C20012300E0D5
:103AB000002318460C37BD4680BC704780B586B0E1
:103AC00000AF78607B68002B01D1012372E27B6834
:103AD0001B6803F00103002B00F08780924B5B68AA
:103AE00003F00C03042B0CD08F4B5B6803F00C032A
:103AF000082B12D18C4B5B6803F48033B3F5803F05
:103B00000BD1894B1B6803F40033002B6CD07B680E
:103B10005B68002B68D101234CE27B685B68B3F5DE
:103B2000803F06D1804B1B687F4A43F4803313608B
:103B30002EE07B685B68002B0CD17B4B1B687A4ABC
:103B400023F480331360784B1B68774A23F4802377
:103B500013601DE07B685B68B3F5A02F0CD1724B3E
:103B60001B68714A43F4802313606F4B1B686E4AD5
:103B700043F4803313600BE06B4B1B686A4A23F4F9
:103B800080331360684B1B68674A23F480231360FB
:103B90007B685B68002B13D0FEF7ACFE386108E051
:103BA000FEF7A8FE02463B69D31A642B01D9032312
:103BB00000E25D4B1B6803F40033002BF0D014E0EF
:103BC000FEF798FE386108E0FEF794FE02463B6976
:103BD000D31A642B01D90323ECE1534B1B6803F484
:103BE0000033002BF0D100E000BF7B681B6803F0BE
:103BF0000203002B63D04C4B5B6803F00C03002BDB
:103C00000BD0494B5B6803F00C03082B1CD1464BCF
:103C10005B6803F48033002B16D1434B1B6803F021
:103C20000203002B05D07B681B69012B01D0012307
:103C3000C0E13D4B1B6823F0F8027B685B69DB0049
:103C4000394913430B603AE07B681B69002B20D095
:103C5000364B01221A60FEF74DFE386108E0FEF790
:103C600049FE02463B69D31A022B01D90323A1E185
:103C70002D4B1B6803F00203002BF0D02A4B1B686E
:103C800023F0F8027B685B69DB00274913430B6074
:103C900015E0264B00221A60FEF72CFE386108E082
:103CA000FEF728FE02463B69D31A022B01D90323F3
:103CB00080E11D4B1B6803F00203002BF0D17B68F1
:103CC0001B6803F00803002B3AD07B689B69002B2C
:103CD00019D0174B01221A60FEF70CFE386108E07C
:103CE000FEF708FE02463B69D31A022B01D90323D3
:103CF00060E10D4B5B6A03F00203002BF0D0012062
:103D000000F0FEFA1CE00A4B00221A60FEF7F2FDFA
:103D100038610FE0FEF7EEFD02463B69D31A022B35
:103D200008D9032346E100BF0010024000004242D0
:103D300080044242924B5B6A03F00203002BE9D1FC
:103D40007B681B6803F00403002B00F0A6800023AF
:103D5000FB758B4BDB6903F08053002B0DD1884B37
:103D6000DB69874A43F08053D361854BDB6903F0FD
:103D70008053BB60BB680123FB75824B1B6803F457
:103D80008073002B18D17F4B1B687E4A43F48073ED
:103D90001360FEF7AFFD386108E0FEF7ABFD0246A9
:103DA0003B69D31A642B01D9032303E1754B1B68CC
:103DB00003F48073002BF0D07B68DB68012B06D105
:103DC0006F4B1B6A6E4A43F0010313622DE07B6860
:103DD000DB68002B0CD16A4B1B6A694A23F0010394
:103DE0001362674B1B6A664A23F0040313621CE0EC
:103DF0007B68DB68052B0CD1614B1B6A604A43F082
:103E0000040313625E4B1B6A5D4A43F001031362B5
:103E10000BE05B4B1B6A5A4A23F001031362584BB9
:103E20001B6A574A23F0040313627B68DB68002B8C
:103E300015D0FEF75FFD38610AE0FEF75BFD024634
:103E40003B69D31A41F28832934201D90323B1E08E
:103E50004B4B1B6A03F00203002BEED014E0FEF77D
:103E600049FD38610AE0FEF745FD02463B69D31A79
:103E700041F28832934201D903239BE0404B1B6AF5
:103E800003F00203002BEED1FB7D012B05D13C4B4F
:103E9000DB693B4A23F08053D3617B68DB69002BED
:103EA00000F08780364B5B6803F00C03082B61D071
:103EB0007B68DB69022B46D1334B00221A60FEF788
:103EC00019FD386108E0FEF715FD02463B69D31A7B
:103ED000022B01D903236DE0294B1B6803F000730B
:103EE000002BF0D17B681B6AB3F5803F08D1244BCF
:103EF0005B6823F400327B689B68214913434B6065
:103F00001F4B5B6823F474127B68196A7B685B6AD9
:103F10000B431B4913434B601B4B01221A60FEF7F6
:103F2000E9FC386108E0FEF7E5FC02463B69D31A7C
:103F3000022B01D903233DE0114B1B6803F00073F2
:103F4000002BF0D035E0104B00221A60FEF7D2FCB7
:103F5000386108E0FEF7CEFC02463B69D31A022B1B
:103F600001D9032326E0064B1B6803F00073002BE6
:103F7000F0D11EE07B68DB69012B07D1012319E03A
:103F80000010024000700040600042420B4B5B6832
:103F9000FB60FB6803F480327B681B6A9A4206D19F
:103FA000FB6803F470127B685B6A9A4201D00123BC
:103FB00000E0002318461837BD4680BD00100240BF
:103FC00080B584B000AF786039607B68002B01D188
:103FD0000123D0E06A4B1B6803F007033A689A425A
:103FE00010D9674B1B6823F0070265493B681343F0
:103FF0000B60634B1B6803F007033A689A4201D0D9
:104000000123B8E07B681B6803F00203002B20D07B
:104010007B681B6803F00403002B05D0594B5B68D9
:10402000584A43F4E06353607B681B6803F008035D
:10403000002B05D0534B5B68524A43F460535360E6
:10404000504B5B6823F0F0027B689B684D4913433B
:104050004B607B681B6803F00103002B40D07B683A
:104060005B68012B07D1474B1B6803F40033002B1F
:1040700015D101237FE07B685B68022B07D1414BA0
:104080001B6803F00073002B09D1012373E03D4B43
:104090001B6803F00203002B01D101236BE0394BB5
:1040A0005B6823F003027B685B68364913434B600F
:1040B000FEF720FCF8600AE0FEF71CFC0246FB68F5
:1040C000D31A41F28832934201D9032353E02D4B96
:1040D0005B6803F00C027B685B689B009A42EBD143
:1040E000274B1B6803F007033A689A4210D2244B0F
:1040F0001B6823F0070222493B6813430B60204BE7
:104100001B6803F007033A689A4201D0012332E0AA
:104110007B681B6803F00403002B08D0194B5B6815
:1041200023F4E0627B68DB68164913434B607B68CD
:104130001B6803F00803002B09D0124B5B6823F4C3
:1041400060527B681B69DB000E4913434B6000F033
:1041500021F802460B4B5B681B0903F00F030A4969
:10416000CB5C22FA03F3094A1360094B1B6818461B
:10417000FEF7F8F9002318461037BD4680BD00BF92
:10418000002002400010024014D400083800002033
:104190003C00002080B487B000AF0023FB60002308
:1041A000BB6000237B6100237B6000233B611E4BCF
:1041B0005B68FB60FB6803F00C03042B02D0082B48
:1041C00003D027E0194B3B6127E0FB689B0C03F011
:1041D0000F03174AD35C7B60FB6803F48033002B2A
:1041E00010D0114B5B685B0C03F00103114AD35CE8
:1041F000BB607B680D4A03FB02F2BB68B2FBF3F3C2
:104200007B6104E07B680C4A02FB03F37B617B6902
:104210003B6102E0054B3B6100BF3B6918461C3720
:10422000BD4680BC704700BF0010024000127A00FB
:104230002CD400083CD4000800093D0080B400AF35
:10424000024B1B681846BD4680BC704738000020F2
:1042500080B500AFFFF7F2FF0246054B5B681B0A13
:1042600003F007030349CB5C22FA03F3184680BD31
:104270000010024024D4000880B500AFFFF7DEFF35
:104280000246054B5B68DB0A03F007030349CB5C7E
:1042900022FA03F3184680BD0010024024D400081F
:1042A00080B483B000AF786039607B680F221A60F9
:1042B000114B5B6803F003027B685A600E4B5B682E
:1042C00003F0F0027B689A600B4B5B6803F4E062DA
:1042D0007B68DA60084B5B68DB0803F4E0627B68AC
:1042E0001A61064B1B6803F007023B681A6000BFA7
:1042F0000C37BD4680BC70470010024000200240D1
:1043000080B485B000AF78600A4B1B680A4AA2FBF4
:1043100003235B0A7A6802FB03F3FB6000BFFB68C0
:104320005A1EFA60002BF9D100BF00BF1437BD46FA
:1043300080BC704738000020D34D621080B582B039
:1043400000AF78607B68002B01D1012341E07B68DE
:1043500093F83D30DBB2002B06D17B68002283F856
:104360003C207868FEF778F87B68022283F83D20CD
:104370007B681A687B6804331946104600F0CCFA53
:104380007B68012283F846207B68012283F83E2067
:104390007B68012283F83F207B68012283F840205C
:1043A0007B68012283F841207B68012283F8422048
:1043B0007B68012283F843207B68012283F8442034
:1043C0007B68012283F845207B68012283F83D2029
:1043D000002318460837BD4680BD000080B485B074
:1043E00000AF78607B6893F83D30DBB2012B01D0E1
:1043F000012332E07B68022283F83D207B681B6842
:10440000184A93420ED07B681B68B3F1804F09D0E5
:104410007B681B68144A934204D07B681B68134A6C
:10442000934211D17B681B689B6803F00703FB6014
:10443000FB68062B10D07B681B681A687B681B68BA
:1044400042F001021A6007E07B681B681A687B680B
:104450001B6842F001021A60002318461437BD465B
:1044600080BC7047002C0140000400400008004060
:1044700080B483B000AF78607B681B681A6A41F231
:1044800011131340002B0FD17B681B681A6A40F28E
:1044900044431340002B07D17B681B681A687B6874
:1044A0001B6822F001021A607B68012283F83D201C
:1044B000002318460C37BD4680BC704780B485B0D9
:1044C00000AF78607B6893F83D30DBB2012B01D000
:1044D00001233AE07B68022283F83D207B681B6859
:1044E000DA687B681B6842F00102DA607B681B684F
:1044F000184A93420ED07B681B68B3F1804F09D0F5
:104500007B681B68144A934204D07B681B68134A7B
:10451000934211D17B681B689B6803F00703FB6023
:10452000FB68062B10D07B681B681A687B681B68C9
:1045300042F001021A6007E07B681B681A687B681A
:104540001B6842F001021A60002318461437BD466A
:1045500080BC7047002C014000040040000800406F
:1045600080B584B000AF78607B681B68DB68FB6057
:104570007B681B681B69BB60BB6803F00203002BF0
:1045800020D0FB6803F00203002B1BD07B681B6864
:104590006FF002021A617B6801221A777B681B6840
:1045A0009B6903F00303002B03D0786800F098F9AF
:1045B00005E0786800F08BF9786800F09AF97B687C
:1045C00000221A77BB6803F00403002B20D0FB689D
:1045D00003F00403002B1BD07B681B686FF0040200
:1045E0001A617B6802221A777B681B689B6903F457
:1045F0004073002B03D0786800F072F905E078680A
:1046000000F065F9786800F074F97B6800221A7789
:10461000BB6803F00803002B20D0FB6803F00803FD
:10462000002B1BD07B681B686FF008021A617B6847
:1046300004221A777B681B68DB6903F00303002BF5
:1046400003D0786800F04CF905E0786800F03FF995
:10465000786800F04EF97B6800221A77BB6803F097
:104660001003002B20D0FB6803F01003002B1BD09D
:104670007B681B686FF010021A617B6808221A774A
:104680007B681B68DB6903F44073002B03D07868F8
:1046900000F026F905E0786800F019F9786800F074
:1046A00028F97B6800221A77BB6803F00103002B0E
:1046B0000CD0FB6803F00103002B07D07B681B685C
:1046C0006FF001021A617868FDF73AFEBB6803F0EB
:1046D0008003002B0CD0FB6803F08003002B07D075
:1046E0007B681B686FF080021A61786800F07FFABF
:1046F000BB6803F04003002B0CD0FB6803F04003C1
:10470000002B07D07B681B686FF040021A61786845
:1047100000F0F8F8BB6803F02003002B0CD0FB6816
:1047200003F02003002B07D07B681B686FF020028A
:104730001A61786800F052FA00BF1037BD4680BD9C
:1047400080B584B000AF786039600023FB737B686C
:1047500093F83C30012B01D10223B4E07B680122A5
:1047600083F83C207B68022283F83D207B681B682D
:104770009B68BB60BB6823F07703BB60BB6823F416
:104780007F43BB607B681B68BA689A603B681B68A4
:10479000B3F5005F3ED0B3F5005F00F28780B3F55C
:1047A000805F00F08680B3F5805F7FD8702B1AD0D1
:1047B000702B7BD8602B50D0602B77D8502B3CD0FF
:1047C000502B73D8402B58D0402B6FD8302B64D04F
:1047D000302B6BD8202B60D0202B67D8002B5CD0DF
:1047E000102B5AD062E07B6818683B6899683B6878
:1047F0005A683B68DB6800F074F97B681B689B684B
:10480000BB60BB6843F07703BB607B681B68BA681A
:104810009A604FE07B6818683B6899683B685A6803
:104820003B68DB6800F05DF97B681B689A687B6811
:104830001B6842F480429A603CE07B6818683B68E1
:1048400059683B68DB681A4600F0D4F87B681B683F
:104850005021184600F02BF92CE07B6818683B6863
:1048600059683B68DB681A4600F0F2F87B681B6801
:104870006021184600F01BF91CE07B6818683B6853
:1048800059683B68DB681A4600F0B4F87B681B681F
:104890004021184600F00BF90CE07B681A683B6871
:1048A0001B681946104600F002F903E00123FB7370
:1048B00000E000BF7B68012283F83D207B68002276
:1048C00083F83C20FB7B18461037BD4680BD80B482
:1048D00083B000AF786000BF0C37BD4680BC704726
:1048E00080B483B000AF786000BF0C37BD4680BC99
:1048F000704780B483B000AF786000BF0C37BD460E
:1049000080BC704780B483B000AF786000BF0C37C4
:10491000BD4680BC7047000080B485B000AF7860B1
:1049200039607B681B68FB607B682F4A93420BD021
:104930007B68B3F1804F07D07B682C4A934203D049
:104940007B682B4A934208D1FB6823F07003FB601D
:104950003B685B68FA681343FB607B68224A9342BA
:104960000BD07B68B3F1804F07D07B681F4A93421E
:1049700003D07B681E4A934208D1FB6823F440733E
:10498000FB603B68DB68FA681343FB60FB6823F05D
:1049900080023B685B691343FB607B68FA681A60BE
:1049A0003B689A687B68DA623B681A687B689A623F
:1049B0007B680D4A934203D13B681A697B681A638E
:1049C0007B6801225A617B681B6903F00103002B9D
:1049D00005D07B681B6923F001027B681A6100BF68
:1049E0001437BD4680BC7047002C014000040040D5
:1049F0000008004080B487B000AFF860B9607A600A
:104A0000FB681B6A7B61FB681B6A23F00102FB6881
:104A10001A62FB689B693B613B6923F0F0033B61D1
:104A20007B681B013A6913433B617B6923F00A03EE
:104A30007B617A69BB6813437B61FB683A699A6161
:104A4000FB687A691A6200BF1C37BD4680BC70479C
:104A500080B487B000AFF860B9607A60FB681B6A09
:104A60007B61FB681B6A23F01002FB681A62FB681B
:104A70009B693B613B6923F470433B617B681B038B
:104A80003A6913433B617B6923F0A0037B61BB68F8
:104A90001B017A6913437B61FB683A699A61FB6881
:104AA0007A691A6200BF1C37BD4680BC704780B46B
:104AB00085B000AF786039607B689B68FB60FB68FD
:104AC00023F07003FB603A68FB68134343F007036D
:104AD000FB607B68FA689A6000BF1437BD4680BCF3
:104AE000704780B487B000AFF860B9607A603B600F
:104AF000FB689B687B617B6923F47F437B613B6838
:104B00001A027B681A43BB6813437A6913437B61BB
:104B1000FB687A699A6000BF1C37BD4680BC70474D
:104B200080B485B000AF786039607B6893F83C3022
:104B3000012B01D1022346E07B68012283F83C204F
:104B40007B68022283F83D207B681B685B68FB6002
:104B50007B681B689B68BB60FB6823F07003FB608D
:104B60003B681B68FA681343FB607B681B68FA6844
:104B70005A607B681B68164A93420ED07B681B689C
:104B8000B3F1804F09D07B681B68124A934204D06E
:104B90007B681B68104A93420CD1BB6823F08003EA
:104BA000BB603B685B68BA681343BB607B681B688B
:104BB000BA689A607B68012283F83D207B680022F6
:104BC00083F83C20002318461437BD4680BC70474C
:104BD000002C0140000400400008004080B483B075
:104BE00000AF786000BF0C37BD4680BC704780B412
:104BF00083B000AF786000BF0C37BD4680BC704703
:104C000080B582B000AF78607B68002B01D10123B2
:104C100042E07B6893F84130DBB2002B06D17B6821
:104C2000002283F840207868FDF748FC7B68242246
:104C300083F841207B681B68DA687B681B6822F474
:104C40000052DA60786800F0B7FD7B681B681A696B
:104C50007B681B6822F490421A617B681B685A6962
:104C60007B681B6822F02A025A617B681B68DA683D
:104C70007B681B6842F40052DA607B6800225A6449
:104C80007B68202283F841207B68202283F8422021
:104C90007B6800225A63002318460837BD4680BD52
:104CA00080B58AB002AFF860B9603B601346FB8004
:104CB00000237B61FB6893F84130DBB2202B75D178
:104CC000BB68002B02D0FB88002B01D101236EE0D2
:104CD000FB6800225A64FB68212283F84120FDF71B
:104CE00009FE7861FB68FA889A84FB68FA88DA849E
:104CF000FB689B68B3F5805F08D1FB681B69002BDC
:104D000004D10023FB61BB68BB6103E0BB68FB61AE
:104D10000023BB612EE03B6800937B690022802169
:104D2000F86800F01CFB0346002B05D0FB6820222E
:104D300083F8412003233AE0FB69002B0BD1BB69C8
:104D40001B881A46FB681B68C2F308025A60BB69DD
:104D50000233BB6107E0FB691A78FB681B685A6085
:104D6000FB690133FB61FB68DB8C9BB2013B9AB2B0
:104D7000FB68DA84FB68DB8C9BB2002BCBD13B68F1
:104D800000937B6900224021F86800F0E8FA0346AE
:104D9000002B05D0FB68202283F84120032306E086
:104DA000FB68202283F84120002300E002231846FC
:104DB0002037BD4680BD80B584B000AFF860B960D3
:104DC0001346FB80FB6893F84230DBB2202B12D1F4
:104DD000BB68002B02D0FB88002B01D101230BE024
:104DE000FB6800221A63FB881A46B968F86800F06D
:104DF0000FFB034600E0022318461037BD4680BD76
:104E000080B5BAB000AF78607B681B681B68C7F8D4
:104E1000E4307B681B68DB68C7F8E0307B681B68A0
:104E20005B69C7F8DC300023C7F8D8300023C7F827
:104E3000D430D7F8E43003F00F03C7F8D830D7F8F0
:104E4000D830002B0FD1D7F8E43003F02003002B2B
:104E500009D0D7F8E03003F02003002B03D07868A6
:104E600000F0ECFB5BE2D7F8D830002B00F0DE80DE
:104E7000D7F8DC3003F00103002B06D1D7F8E0307F
:104E800003F49073002B00F0D180D7F8E43003F0E6
:104E90000103002B0BD0D7F8E03003F48073002B14
:104EA00005D07B685B6C43F001027B685A64D7F8DD
:104EB000E43003F00403002B0BD0D7F8DC3003F010
:104EC0000103002B05D07B685B6C43F002027B681A
:104ED0005A64D7F8E43003F00203002B0BD0D7F864
:104EE000DC3003F00103002B05D07B685B6C43F0E2
:104EF00004027B685A64D7F8E43003F00803002BFF
:104F000011D0D7F8E03003F02003002B05D1D7F8FB
:104F1000DC3003F00103002B05D07B685B6C43F0B1
:104F200008027B685A647B685B6C002B00F0F2819E
:104F3000D7F8E43003F02003002B08D0D7F8E03096
:104F400003F02003002B02D0786800F077FB7B6829
:104F50001B685B6903F04003002B14BF012300238F
:104F6000DBB2C7F8D4307B685B6C03F00803002B1E
:104F700003D1D7F8D430002B4FD0786800F081FAF5
:104F80007B681B685B6903F04003002B41D07B68A2
:104F90001B681433C7F89C30D7F89C3053E8003FA7
:104FA000C7F89830D7F8983023F04003C7F8D030CE
:104FB0007B681B681433D7F8D020C7F8A820C7F83F
:104FC000A430D7F8A410D7F8A82041E80023C7F8E8
:104FD000A030D7F8A030002BD9D17B68DB6B002B39
:104FE00013D07B68DB6B7E4A5A637B68DB6B1846A9
:104FF000FDF7C8FD0346002B16D07B68DB6B5B6BAF
:105000007A68D26B104698470EE0786800F093F902
:105010000AE0786800F08FF906E0786800F08BF914
:105020007B6800225A6475E100BF73E17B681B6BEB
:10503000012B40F04F81D7F8E43003F01003002B30
:1050400000F04881D7F8E03003F01003002B00F0A7
:1050500041810023BB607B681B681B68BB607B6869
:105060001B685B68BB60BB687B681B685B6903F09F
:105070004003002B00F0B6807B68DB6B1B685B682D
:10508000A7F8BE30B7F8BE30002B00F045817B6832
:105090009B8DB7F8BE209A4280F03E817B68B7F8BE
:1050A000BE20DA857B68DB6B9B69202B00F0888053
:1050B0007B681B680C33C7F88830D7F8883053E812
:1050C000003FC7F88430D7F8843023F48073C7F8E2
:1050D000B8307B681B680C33D7F8B820C7F8942029
:1050E000C7F89030D7F89010D7F8942041E8002303
:1050F000C7F88C30D7F88C30002BD9D17B681B686F
:1051000014337B677B6F53E8003F3B673B6F23F0B3
:105110000103C7F8B4307B681B681433D7F8B42098
:10512000C7F88020FB67F96FD7F8802041E800239B
:10513000BB67BB6F002BE1D17B681B6814333B66F8
:105140003B6E53E8003FFB65FB6D23F04003C7F85F
:10515000B0307B681B681433D7F8B020FA66BB66A2
:10516000B96EFA6E41E800237B667B6E002BE3D1BB
:105170007B68202283F842207B6800221A637B68C8
:105180001B680C33FB64FB6C53E8003FBB64BB6CD7
:1051900023F01003C7F8AC307B681B680C33D7F8DA
:1051A000AC20BA657B65796DBA6D41E800233B653B
:1051B0003B6D002BE3D17B68DB6B1846FDF7A7FC4A
:1051C0007B6802225A637B689A8D7B68DB8D9BB279
:1051D000D31A9BB21946786800F0B6F89CE000BF7D
:1051E000475500087B689A8D7B68DB8D9BB2D31A8C
:1051F000A7F8CE307B68DB8D9BB2002B00F08E8051
:10520000B7F8CE30002B00F089807B681B680C3328
:10521000BB63BB6B53E8003F7B637B6B23F49073F2
:10522000C7F8C8307B681B680C33D7F8C8207A648D
:105230003B64396C7A6C41E80023FB63FB6B002B09
:10524000E3D17B681B6814337B627B6A53E8003FC1
:105250003B623B6A23F00103C7F8C4307B681B68DC
:105260001433D7F8C4203A63FB62F96A3A6B41E819
:105270000023BB62BB6A002BE3D17B68202283F84A
:1052800042207B6800221A637B681B680C333B61F9
:105290003B6953E8003FFB60FB6823F01003C7F84D
:1052A000C0307B681B680C33D7F8C020FA61BB6143
:1052B000B969FA6941E800237B617B69002BE3D17E
:1052C0007B6802225A63B7F8CE301946786800F03E
:1052D0003BF823E0D7F8E43003F08003002B09D03B
:1052E000D7F8E03003F08003002B03D0786800F09B
:1052F0003EF914E0D7F8E43003F04003002B0ED061
:10530000D7F8E03003F04003002B08D0786800F0B5
:105310007DF904E000BF02E000BF00E000BFE83715
:10532000BD4680BD80B483B000AF786000BF0C374D
:10533000BD4680BC704780B483B000AF786000BFCA
:105340000C37BD4680BC704780B483B000AF786036
:105350000B467B8000BF0C37BD4680BC704780B5D4
:1053600086B000AFF860B9603B601346FB713BE06C
:105370003B6AB3F1FF3F37D0FDF7BCFA02463B680A
:10538000D31A3A6A9A4202D33B6A002B01D1032313
:105390003AE0FB681B68DB6803F00403002B23D0B2
:1053A000BB68802B20D0BB68402B1DD0FB681B68DE
:1053B0001B6803F00803082B16D100237B61FB68F0
:1053C0001B681B687B61FB681B685B687B617B6992
:1053D000F86800F056F8FB6808225A64FB6800225F
:1053E00083F8402001230FE0FB681B681A68BB6844
:1053F0001340BA689A420CBF01230023DBB21A465D
:10540000FB799A42B4D0002318461837BD4680BDB8
:1054100080B485B000AFF860B9601346FB80FB68CC
:10542000BA689A62FB68FA889A85FB68FA88DA8516
:10543000FB6800225A64FB68222283F84220FB6842
:105440001B69002B07D0FB681B68DA68FB681B68C8
:1054500042F48072DA60FB681B685A69FB681B685B
:1054600042F001025A61FB681B68DA68FB681B683E
:1054700042F02002DA60002318461437BD4680BC93
:10548000704780B495B000AF78607B681B680C33C0
:105490007B637B6B53E8003F3B633B6B23F4907370
:1054A000FB647B681B680C33FA6C3A64FB63F96B32
:1054B0003A6C41E80023BB63BB6B002BE5D17B68F2
:1054C0001B6814333B623B6A53E8003FFB61FB6996
:1054D00023F00103BB647B681B681433BA6CFA6267
:1054E000BB62B96AFA6A41E800237B627B6A002BDF
:1054F000E5D17B681B6B012B19D17B681B680C33D2
:10550000FB60FB6853E8003FBB60BB6823F01003FF
:105510007B647B681B680C337A6CBA617B61796948
:10552000BA6941E800233B613B69002BE5D17B6808
:10553000202283F842207B6800221A6300BF543780
:10554000BD4680BC704780B584B000AF78607B6892
:105550005B6AFB60FB680022DA85FB680022DA8464
:10556000F868FFF7E8FE00BF1037BD4680BD80B485
:1055700085B000AF78607B6893F84130DBB2212BB7
:105580003ED17B689B68B3F5805F14D17B681B6953
:10559000002B10D17B681B6AFB60FB681B881A46D6
:1055A0007B681B68C2F308025A607B681B6A9A1CFE
:1055B0007B681A6208E07B681B6A591C7A68116272
:1055C0001A787B681B685A607B68DB8C9BB2013B56
:1055D0009BB27A681946D184002B0FD17B681B6877
:1055E000DA687B681B6822F08002DA607B681B68DF
:1055F000DA687B681B6842F04002DA60002300E052
:10560000022318461437BD4680BC704780B582B06F
:1056100000AF78607B681B68DA687B681B6822F0E3
:105620004002DA607B68202283F841207868FFF727
:1056300079FE002318460837BD4680BD80B58CB082
:1056400000AF78607B6893F84230DBB2222B40F0E9
:10565000AE807B689B68B3F5805F17D17B681B6960
:10566000002B13D10023FB627B689B6ABB627B68C3
:105670001B685B689BB2C3F308039AB2BB6A1A80CB
:105680007B689B6A9A1C7B689A6226E07B689B6AAF
:10569000FB620023BB627B689B68B3F5805F07D029
:1056A0007B689B68002B0AD17B681B69002B06D1A5
:1056B0007B681B685B68DAB2FB6A1A7008E07B687B
:1056C0001B685B68DBB203F07F03DAB2FB6A1A7017
:1056D0007B689B6A5A1C7B689A627B68DB8D9BB2F5
:1056E000013B9BB27A681946D185002B5DD17B685E
:1056F0001B68DA687B681B6822F02002DA607B682E
:105700001B68DA687B681B6822F48072DA607B6849
:105710001B685A697B681B6822F001025A617B682A
:10572000202283F842207B6800225A637B681B6B2F
:10573000012B35D17B6800221A637B681B680C3310
:105740007B617B6953E8003F3B613B6923F01003B9
:105750007B627B681B680C337A6A3A62FB61F96989
:105760003A6A41E80023BB61BB69002BE5D17B6845
:105770001B681B6803F01003102B0AD10023FB6089
:105780007B681B681B68FB607B681B685B68FB6051
:10579000FB687B689B8D19467868FFF7D5FD02E0B2
:1057A0007868FCF7A7FB002302E0002300E0022357
:1057B00018463037BD4680BD80B584B000AF7860F4
:1057C0007B681B681B6923F440517B68DA687B683F
:1057D0001B680A431A617B689A687B681B691A43D5
:1057E0007B685B691343BB607B681B68DB6823F4E1
:1057F000B05323F00C037A681268B9680B43D36086
:105800007B681B685B6923F440717B689A697B68DD
:105810001B680A435A617B681B682C4A934203D178
:10582000FEF72AFDF86002E0FEF712FDF860FA6864
:1058300013469B0013449A001A447B685B689B00E4
:10584000B2FBF3F3224AA2FB03235B091901FA68B6
:1058500013469B0013449A001A447B685B689B00C4
:10586000B2FBF3F21A4BA3FB02035B09642000FBBB
:1058700003F3D31A1B013233154AA2FB03235B093E
:1058800003F0F0031944FA6813469B0013449A008E
:105890001A447B685B689B00B2FBF3F20C4BA3FBE2
:1058A00002035B09642000FB03F3D31A1B013233AC
:1058B000074AA2FB03235B0903F00F027B681B6806
:1058C0000A449A6000BF1037BD4680BD00380140D1
:1058D0001F85EB5180B483B000AF03463960FB7184
:1058E00097F90730002B0ADB3B68DAB20C4997F9CD
:1058F00007301201D2B20B4483F800230AE03B6860
:10590000DAB20849FB7903F00F03043B1201D2B26B
:105910000B441A7600BF0C37BD4680BC704700BFF1
:1059200000E100E000ED00E080B500AF054B1B6832
:1059300002F094FC0346012B01D003F0FDFD00BFF3
:1059400080BD00BF10E000E080B500AF00216FF027
:105950000400FFF7BFFF00BF80BD000080B483B02C
:1059600000AFEFF305833B603B68002B03D06FF083
:1059700005037B600CE0094B1B68002B05D1074B2E
:1059800001221A6000237B6002E04FF0FF337B604E
:105990007B6818460C37BD4680BC70472004002049
:1059A00080B582B000AFEFF305833B603B68002B0E
:1059B00003D06FF005037B6010E00B4B1B68012BDD
:1059C00009D1FFF7C1FF084B02221A6001F0C6FFA0
:1059D00000237B6002E04FF0FF337B607B6818465A
:1059E0000837BD4680BD00BF2004002080B582B0CE
:1059F00000AFEFF305833B603B68002B03D002F060
:105A0000D7F8786002E002F0C5F878607B68184645
:105A10000837BD4680BD80B58EB004AFF860B96070
:105A20007A6000233B61EFF305837B617B69002B88
:105A30007FD1FB68002B7CD04FF480733B6218232E
:105A4000FB6100237B624FF0FF33BB617B68002B5F
:105A500045D07B681B68002B02D07B681B687B628B
:105A60007B689B69002B02D07B689B69FB61FB69AB
:105A7000002B08D0FB69382B05D87B685B6803F0E6
:105A80000103002B01D0002354E07B685B69002BED
:105A900003D07B685B699B083B627B689B68002B3B
:105AA0000ED07B68DB68A72B0AD97B681B69002BAB
:105AB00006D07B685B69002B02D00123BB6110E03C
:105AC0007B689B68002B0CD17B68DB68002B08D1BE
:105AD0007B681B69002B04D10023BB6101E000231C
